:020000040800F2
:100000000050002095560008DD560008DD56000817
:10001000DD560008DD560008DD560008000000002F
:10002000000000000000000000000000DD56000895
:10003000DD56000800000000DD5600085F410008A2
:10004000DD560008DD560008DD560008DD560008C4
:10005000DD560008DD560008E9410008EF410008C0
:10006000F5410008FB41000801420008DD56000888
:10007000DD560008DD560008DD560008DD56000894
:10008000DD560008DD560008DD560008DD56000884
:10009000DD560008DD560008DD560008074200085E
:1000A000DD56000829520008DD5600083D520008C0
:1000B000415200085552000869520008E113000837
:1000C000ED130008F913000805140008DD560008B8
:1000D000DD560008014D0008194D0008314D00089B
:1000E0001D42000885470008DD560008000000009A
:1000F0000000000000000000000000000000000000
:0C01000000000000000000005FF808F1A3
:10010C00034613F8012B002AFBD1181A013870474B
:10011C0010B5054C237833B9044B13B10448AFF335
:10012C0000800123237010BD880000200000000017
:10013C008C5B000808B5034B1BB103490348AFF3B4
:10014C00008008BD000000008C0000208C5B0008C3
:10015C0002729DF80020416082720BB9437205E077
:10016C00012BFBD0022BF9D0032BF7D0704710B525
:10017C0086B003AC84E80E00059B2321009394E821
:10018C000C0001F04BFD06B010BD232101F07EBD2B
:10019C0013460A46232101F099BD0000F0B5002654
:1001AC00044687B0C76803AD3346012228460F4981
:1001BC000096FFF7CDFF95E80E003846FFF7D7FF06
:1001CC003146607A05F0D4FA0122C021E068FFF7CD
:1001DC00DFFF0121607A05F0CBFAE068FFF7D5FF6D
:1001EC000A2005F013FB07B0F0BD00BF40420F0022
:1001FC002DE9F041002504460F4686B0D0F80C805E
:10020C0003AE2B460095012230461349FFF7A0FFA1
:10021C0096E80E004046FFF7AAFF2946607A05F0E3
:10022C00A7FA01220321E068FFF7B2FF3946012249
:10023C00E068FFF7ADFF01222946E068FFF7A8FF51
:10024C0005460121607A05F093FAE068FFF79DFFFF
:10025C00284606B0BDE8F08140420F002DE9F0437E
:10026C004FF0000804460F46164687B0D0F80C90A5
:10027C0003AD4346012228461349CDF80080FFF711
:10028C0067FF95E80E004846FFF771FF4146607A1C
:10029C0005F06EFA01220221E068FFF779FF39467A
:1002AC000122E068FFF774FF01223146E068FFF796
:1002BC006FFF0121607A05F05BFAE068FFF765FFDC
:1002CC0007B0BDE8F08300BF40420F002DE9F047B6
:1002DC004FF000090446884617461E4686B0D0F8F3
:1002EC000CA003AD4B46012228461649CDF80090D0
:1002FC00FFF72EFF95E80E005046FFF738FF4946F2
:10030C00607A05F035FA01220521E068FFF740FF1D
:10031C0041460122E068FFF73BFF39460122E068C5
:10032C00FFF736FF01223146E068FFF731FF01216C
:10033C00607A05F01DFAE068FFF727FF06B0BDE80C
:10034C00F08700BF40420F0038B505460B460C46FF
:10035C00E0220F21FFF7BAFF0F212846FFF748FFD5
:10036C0000F0E000001B18BF012038BD012A70B559
:10037C000646144603D0022A1CD0012418E0013989
:10038C00C9B2112914D8384B5A5C384B5D5C384BC8
:10039C005C5C2A213046FFF761FF2A462921304652
:1003AC00FFF75CFF224628213046FFF757FF002459
:1003BC00204670BD4B1E112BDFD801A252F823F042
:1003CC00650400086D040008150400088703000884
:1003DC001D04000887030008230400082B040008F0
:1003EC00310400088703000887030008390400085B
:1003FC003F040008450400084D0400085B04000895
:10040C00870300085F0400080724BF250722C0E704
:10041C000424A425FAE70C46BF250322B9E70624D9
:10042C00B425FAE70724BF250122B2E70624B42538
:10043C00FAE70524B125F7E70624B4250022A8E73E
:10044C000C490D4804F092FF0524B125F6E79025E0
:10045C00F4E700248025F1E70724BF251F2298E745
:10046C000724BF250F2294E7AA5C0008BC5C000897
:10047C00CE5C0008B45B0008B801002038B5054616
:10048C003024214600222846FFF7E8FE04F1100133
:10049C0000222846C9B2FFF7E1FE04F12001013425
:1004AC0000222846C9B2E4B2FFF7D8FE3E2CE8D1B0
:1004BC00284600226021FFF7D1FE2846BDE83840CF
:1004CC0000227021FFF7CABEF8B505460E46234838
:1004DC002349174604F04AFF2846FFF75FFE2149DF
:1004EC001E4804F043FF80212846FFF72DFF0446E9
:1004FC0028B11D49194804F023FF2046F8BD1B49BB
:10050C00164804F01DFF3A4631462846FFF72EFFE9
:10051C0008B11749EEE71749104804F011FF2846B7
:10052C00FFF7ACFF03222B212846FFF797FE04238D
:10053C00642260212846FFF7C9FE23466022702101
:10054C002846FFF7C3FE21462846FFF7FDFE04466A
:10055C0008B10949CEE70949CCE700BFB801002032
:10056C00CB5B0008D85B0008E35B0008FD5B000870
:10057C001B5C00082D5C0008425C00085D5C0008F8
:10058C0010B50446084649B16172012105F0A2F884
:10059C00607A0121BDE8104005F0EAB810BD0000FA
:1005AC00002310B504460374024BC360FFF7E8FF49
:1005BC00204610BDD8060020F0B5044617460E465E
:1005CC00174D87B02846174904F0D0FEE068232168
:1005DC0001F0FCFA2846144904F0C8FE3A463146AC
:1005EC002046FFF771FF0446104903A804F04BFFA7
:1005FC000A222146684604F069FF694603A804F004
:10060C009FFF0146284604F0A7FE684604F0F6FE5C
:10061C0003A804F0F3FE201E18BF012007B0F0BDA4
:10062C00B80100207B5C0008865C0008A35C000815
:10063C0003681847012A03D0022A03D00020704710
:10064C000160FBE70B680360F8E7000008B5054B99
:10065C001B7833B90449054804F07EFE0122044B93
:10066C001A7008BDB8020020C8020020B801002092
:10067C00B902002070B5012005F09EF8012804464F
:10068C004FD103220021274800F066FF264D274852
:10069C0001F092F94FF47A7005F0B8F82E687EB933
:1006AC002349204804F04CFE4FF4164231461F48B3
:1006BC0001F052F92C601D48BDE8704001F05EB8A5
:1006CC00012E0CD11B49174804F03AFE4FF41602C8
:1006DC000021164801F040F902232B60EBE7022EB3
:1006EC00E9D1002614490F4804F02AFE9622002175
:1006FC000E4801F031F90D4801F040F84FF4FA6062
:10070C002E6005F083F8094801F056F9324631465F
:10071C00064801F021F9094B02481C7000F0E8FE74
:10072C00C9E770BDE0020020D8020020F0020020D2
:10073C00E05C0008F35C0008065D0008D4020020B1
:10074C00836810B5044613B103220146984720462E
:10075C0010BD000038B56C4BDA6942F00072DA61FA
:10076C009A6942F001029A61684A546824F4C044C0
:10077C00546091B99A6942F004029A61A3F58433EA
:10078C005A6822F47F225A605968614A0A435A60B7
:10079C00DA6842F48052DA6005E0022900F08380C6
:1007AC00032900F095805B4B1A6842F001021A6035
:1007BC005A68D107FCD541221A60D969564A00EB18
:1007CC0040000A40DA61554ADC6915186978125CF8
:1007DC000139013A1205090401F4702102F4E00216
:1007EC000A43A9784B480139C1F308010A43224353
:1007FC00DA61D3F800224FF47A7442F00102C3F8A4
:10080C000022D3F80022464922F47C52C3F800227D
:10081C00D3F8002242F4E052C3F80022D3F81C2291
:10082C0022F00102C3F81C22D3F80C2242F0010280
:10083C00C3F80C22D3F8042222F00102C3F80422DC
:10084C00D3F8142222F00102C3F814220022C3F8B8
:10085C004022C3F84422D3F81C2242F00102C3F810
:10086C001C22D3F8002222F00102C3F800221A68DD
:10087C0022F001021A602B4B2B4A1B68B3FBF2F3DC
:10088C0063434268D20738D54D684A68521B93427D
:10089C00FBDC013CA4B2002CF3D12449244804F025
:1008AC0065FD20462EE0516841F4804151609A6903
:1008BC0042F008029A611F4B5A6822F0FF025A60FC
:1008CC005A6842F0B8025A60DA6842F4807262E701
:1008DC00516841F4A04151609A6942F020029A613A
:1008EC00154B1A6822F0FF021A605A6842F0B802DF
:1008FC005A60DA6842F001024DE710490C4804F0E6
:10090C0035FD012038BD00BF001002400000014041
:10091C00FF8F0B000064004000FE80FCF55D0008BA
:10092C00001000E01C00002040420F002C5D00086D
:10093C00B8010020000C014000140140195D0008B2
:10094C0008B506224FF4E131154804F059FB062294
:10095C004FF4E131134804F053FB0021012004F063
:10096C00B9FE0121102004F0B5FE01210F2004F086
:10097C00B1FE01210E2004F0ADFE01210D2004F08A
:10098C00A9FE01210C2004F0A5FE01210B2004F08E
:10099C00A1FEBDE8084001210A2004F09BBE00BF67
:1009AC00B8000020B801002010B5002186B003204B
:1009BC00FFF7D0FE04460D4903A804F064FD0A229B
:1009CC002146684604F093FD694603A804F0B8FD7F
:1009DC000146074804F0C0FC684604F00FFD03A86C
:1009EC0004F00CFD04B9FEE706B010BD435D000831
:1009FC00B8010020F0B51B491B4887B004F0B6FCC9
:100A0C001A4F1B4E184D02220F213846FFF7D4FD0A
:100A1C00044658B13146284604F0A8FC284615492E
:100A2C0004F0A4FC642004F0F1FEECE7124903A8E6
:100A3C0004F029FD0A222146684604F058FD694657
:100A4C0003A804F07DFD0146074804F085FC6846C8
:100A5C0004F0D4FC03A804F0D1FC0122074B1A705B
:100A6C0007B0F0BD4D5D0008B8010020A4000020C7
:100A7C00575D0008705D00088B5D0008D5020020F2
:100A8C0030B5682132488BB000F07CFA304800F069
:100A9C00EDFA304D08B901232B704FF4FA7004F0C5
:100AAC00B5FE50212A4800F06DFA294800F0DEFA14
:100ABC00294C08B90123237001220021274800F09A
:100ACC004BFD274901A804F0DEFC254904A804F0DD
:100ADC00DAFC2B781BB1234901A804F0E6FC23783F
:100AEC001BB1204904A804F0E0FC012200211B48A2
:100AFC0000F032FD1C4907A804F0C5FC01A907A8A9
:100B0C0004F01EFD194904F027FD04A904F018FD9A
:100B1C000146124804F00FFC07A804F06FFC0222F7
:100B2C0000210E4800F018FD114B1B781BB1114928
:100B3C000A4804F005FC4FF4FA7004F067FE04A8B0
:100B4C0004F05CFC01A804F059FC0BB030BD00BFF4
:100B5C001006002010030020DC020020E002002020
:100B6C00955D0008B55D0008995D00089F5D000863
:100B7C00D5020020A95D000810B51E4C204600F0DF
:100B8C001BFF4FF416020021204600F0E5FE204624
:100B9C0000F0F4FD4FF47A7004F038FE204600F0BB
:100BAC000BFF4FF416420021204600F0D5FE2046E4
:100BBC0000F0E4FD4FF47A7004F028FE204600F0BB
:100BCC00FBFE96220021204600F0C6FE204600F0D7
:100BDC00D5FD4FF47A7004F019FE204600F0ECFEBF
:100BEC0000222046114600F0B7FE2046BDE810401A
:100BFC0000F0C4BDF002002030B585B0FFF7A0FEB8
:100C0C001E4CFFF7D1FE1E4DFFF7F4FE1D4B6A463E
:100C1C004FF47A711C4800930294039500F07CFF0A
:100C2C006846FFF78DFD194B6A46642118480093FE
:100C3C00CDE9024500F070FF6846FFF781FD1548CD
:100C4C0000F038FD144800F045FD124800F0FAFBA6
:100C5C00002203210F4800F07FFC10490D4804F0DE
:100C6C006AFBFFF70DFFFFF787FF0D4C237813B9D5
:100C7C00FFF700FDFAE705B030BD00BF41060008E4
:100C8C003D060008590600088C0400208106000867
:100C9C0014030020E0020020F002002004060020D3
:100CAC00D402002008B50949094804F05FFB4FF451
:100CBC007A7004F0ABFD0749074804F057FBBDE818
:100CCC0008404FF47A7004F0A1BD00BFB95D000874
:100CDC00B8010020C25D0008B8000020FFF7E2BF99
:100CEC0008B5174800F079FE164800F076FE04238C
:100CFC0014222721144800F085FB522300220121E5
:100D0C00124800F013FE16221721114804F006F9C0
:100D1C001E221F210F4804F001F90F490F4804F05F
:100D2C00B2FB0F490F4804F0AEFB0F490F4804F01B
:100D3C00AAFBBDE8084018210D48FFF731BC00BFE5
:100D4C008C04002014030020E0020020F00200209C
:100D5C00B8000020B8010020CB5D0008040600207C
:100D6C00DA5D0008C8020020E65D0008BC02002025
:100D7C00A400002038B50F4804F040FB0E4804F0E6
:100D8C003DFB0E4804F03AFB0D4800F095FC0A249C
:100D9C000C4D2846FFF7D4FC013CA5F11005F8D109
:100DAC000A24094D2846FFF7CBFC013CA5F11005A0
:100DBC00F8D138BDBC020020C80200200406002077
:100DCC00F0020020CC03002044050020827D407DF1
:100DDC00101A70470346427D817D914281BF0169A3
:100DEC00885C01325A7598BF4FF0FF307047827D96
:100DFC00437D9A4286BF0269D05C4FF0FF3070474A
:100E0C00836DD3F8B8201AB1002159779977104720
:100E1C0070470000202938BF202138B5054680696D
:100E2C000C4604F003FE10B1A8612C7738BD2146A6
:100E3C00BDE83840014803F0A5BC00BF075E0008C0
:100E4C0013B5C37F04468DF80710BBB1817F037FB8
:100E5C000131994201D9FFF7DDFFA06918B90123CF
:100E6C00636002B010BD637F9DF80720C254637F9E
:100E7C0001200133DBB26377A377F2E701220DF196
:100E8C000701243000F0CEF9B0FA80F04009E8E711
:100E9C0070B5C37F04460E461546CBB1817F037FE8
:100EAC001144994201D9FFF7B5FFA36923B9012277
:100EBC001D466260284670BD607F2A461844314644
:100ECC0004F0F8FC637F2B44DBB26377A377F1E784
:100EDC0092B2243000F0A6F9002818BF0025E9E7EB
:100EEC0000214FF47A72C0E90112054A0260054AEA
:100EFC009188A0F88010D288A0F88220704700BF9B
:100F0C00945E0008FC62000838B500230446C0E972
:100F1C000433C0E90633C0F8B8304B00DBB280F8BC
:100F2C002030C067A1F133004142414104F1240556
:100F3C0084F8B61084F8B72028464FF4804208494C
:100F4C0000F0AEF894F8B6304BB92846054900F0DD
:100F5C00E4F92846BDE83840034900F0D7B938BD5C
:100F6C00A08601000D0E0008D50F00080A4633219B
:100F7C00FFF7CABF002343774FF480734900C17554
:100F8C00C3837047002343774FF480734900C175C6
:100F9C00C383704738B5037D05468B420C4609D296
:100FAC00202938BF20240069214604F03FFD10B1F0
:100FBC0028612C7538BD2146BDE83840014803F046
:100FCC00E1BB00BF075E000870B5846D0546D4F820
:100FDC00BC30466EEBB1627DA37D9A4219D331468B
:100FEC002046FFF7D7FF236923B94FF4CF71094887
:100FFC0003F0C8FB3246206905F1700104F05AFC7D
:10100C000023A67563753046D4F8BC30BDE870403B
:10101C00184770BD1F5E00080346806918B1002197
:10102C001A7F04F055BC704738B50446C9B94FF463
:10103C002A03636594F8B630012B15D1A37FA269FE
:10104C00E17D04F1240000F021F9042828BF0420DC
:10105C0045B22046FFF7E0FF00236377E383E8B255
:10106C0038BD4FF02A43E4E70425F8E70121FFF7E8
:10107C00DBBF002110B5044641758175006910B1C4
:10108C00227D04F025FC002320466377A377FFF72D
:10109C00C3FF10BD0148FFF723BF00BF100600209F
:1010AC002DE9F3410D4616461F460446002800F074
:1010BC0086805349B0F95C0003F030FB51498046FF
:1010CC00B4F95E0003F02AFB0146B8F1000F76D0AC
:1010DC00002874D0404603F039FB206000286ED005
:1010EC00494B04F1040898426CD103F5DE33DA69FC
:1010FC0042F40012DA61DA6902F400120092009AEA
:10110C001A6942F400121A611A6922F400121A6167
:10111C0042F21F03A4F860303C4BC3F800803949FD
:10112C00B4F95E0003F0DAFAB4F95C00344903F068
:10113C00D5FA374823688542636006D9354885421D
:10114C0003D93548854288BF00203149FF238D42A1
:10115C008CBF4FF480450025C4E903570025E3619B
:10116C0094F893302A46AB420CBF2B464023022105
:10117C00C4E90835A060666194F96000A56184F843
:10118C00415000F0DDFF94F9600001F00BF82A46A5
:10119C00022194F9610000F0D3FF94F9610001F091
:1011AC0001F8404601F0D6F820B140F2D5211B4899
:1011BC0003F0E8FA00236366022384F8913002B04E
:1011CC00BDE8F081164B9842A9D103F5DC33DA69FE
:1011DC0042F48002DA61DA6902F480020192019A27
:1011EC001A6942F480021A611A6922F480021A61A7
:1011FC0042F22123A4F86030044BC3F804808EE73C
:10120C005C6000082C60000800540040D0060020F0
:10121C00A0860100801A060040420F00B45E000850
:10122C0000580040202A30B50ED800239CB2A242B0
:10123C0004D8D2B280F89020002030BDCD5CC41808
:10124C0084F870500133F1E70120F6E710B5642300
:10125C000446043001F01EF902280AD0032801D0FC
:10126C0068B910BD94F84130202B0CBF022005202A
:10127C00F7E794F84130202B18BF0620F1E794F8DB
:10128C004130202B0CBF02200420EAE72DE9F3416A
:10129C0005460C4690461F4600F03AFF06463FB9FD
:1012AC0001222146284602B0BDE8F041FFF7CEBF2F
:1012BC002B6B04352146009342463B46284601F0F1
:1012CC0093F9044650B1002002B0BDE8F08100F063
:1012DC001FFF841B284602F038F830B9284602F06C
:1012EC0031F8202801D0632CF1D9284602F02DF8D2
:1012FC00632C07D8820605D4430705D40028E2D016
:10130C000420E1E70520DFE70320DDE720B119B178
:10131C008166043001F058BA704720B119B1C1662A
:10132C00043001F051BA7047C36810B59A420446B4
:10133C001DD179B9836E80F88D100BB104389847A4
:10134C00204694F88C2004F16C012023BDE8104059
:10135C0001F0C4B900230122036680F88D20016ED0
:10136C000423BDE8104001446C3101F0F2B910BD0A
:10137C0010B590F88D300446012B04D1036E13B1D7
:10138C00436E04389847022384F88D30002320469E
:10139C002366BDE8104001F017BA036E1F2BDEBFA9
:1013AC00036E0133036690F88D30012BDAB205D150
:1013BC00016E042301446C3101F0CBB9704700235A
:1013CC0080F88C30704790F88E300BB901F0FCB976
:1013DC0070470000014B186801F0F4BAD0060020E9
:1013EC00014B186801F012BFD0060020014B586861
:1013FC0001F0E8BAD0060020014B586801F006BF96
:10140C00D006002070B50025034E456006600172C1
:10141C0042738373C57370BD2C5F000870B50446AE
:10142C000E46074D017A2846FFF7A4FDE17B2846BE
:10143C003143FFF705FD2846BDE87040FFF716BEA7
:10144C001006002008230021C373FFF7E7BF00003C
:10145C00F8B5114D0E4641F004010746FFF7DEFFCB
:10146C002A680E480E4CB2FBF0F2616863685B1A96
:10147C009A42FBDC384606F0FB01FFF7CFFF2A68E7
:10148C00064B6168B2FBF3F332225A4304484368BB
:10149C005B1A9A42FBDCF8BD1C00002040420F0096
:1014AC00001000E038B504460D46FFF7B7FF29469B
:1014BC002046BDE83840FFF7CBBF70B50D4614464B
:1014CC00064621F00F011143FFF7ECFF44EA05112A
:1014DC003046BDE87040C9B2FFF7E4BF08B5012241
:1014EC00FFF7EBFF012008BD0022FFF7E6BF00006D
:1014FC00012108B5FFF7F8FF074A084B1168084AA5
:10150C005868B1FBF2F24FF4FA6151435A68121A5F
:10151C009142FBDC08BD00BF1C000020001000E065
:10152C0040420F00022108B5FFF7DEFF074A084BC7
:10153C001168084A5868B1FBF2F24FF4FA61514352
:10154C005A68121A9142FBDC08BD00BF1C00002037
:10155C00001000E040420F007FB5064615460C46D1
:10156C000C4B0DF1100C0FCB0CE90F00327B04ABC4
:10157C00AA423CBF02F1FF32D5B203EB850555F808
:10158C00101C3046214461F07F01C9B2FFF7ACFF5B
:10159C0004B070BDA45B000808B5817A41F0040268
:1015AC00827241F00C01FFF79FFF08BD70B5012A54
:1015BC0088BF417A044684BF41F00801417202732E
:1015CC002BB1012A02BF437A43F004034372322049
:1015DC0004F01CF9E17B2046FFF720FF294D4FF466
:1015EC007A7004F013F930212046FFF75BFF2A686C
:1015FC00254B264EB2FBF3F341F294125A43716819
:10160C0073685B1A9A42FBDC30212046FFF74AFFD5
:10161C002A681D4B7168B2FBF3F341F294125A43E2
:10162C001A4E73685B1A9A42FBDC30212046FFF796
:10163C0039FF2A68144B7168B2FBF3F396225A43B4
:10164C00124843685B1A9A42FBDC20462021FFF7C4
:10165C0029FF617A204641F02001FFF745FF042362
:10166C002046A372FFF798FF2046FFF741FF0223A5
:10167C002046E3720621FFF737FF2046BDE8704095
:10168C00FFF750BF1C00002040420F00001000E08C
:10169C0010B5002104460648FFF768FC00232046DD
:1016AC00A27B617B6372BDE81040FFF77FBF00BF78
:1016BC0010060020FFF7ECBF10B50446C06804F01C
:1016CC00F1F8B4F90600002802DB002104F002F85E
:1016DC00204610BD10B50446B0F90600002807DB03
:1016EC00012103F0F7FF0021B4F9060004F040F8E3
:1016FC000123637010BD70B50446C0680E4604F03B
:10170C00D1F8E57C227C95420CBF0325042575435A
:10171C00ADB22846A58004F0BDF8E06028B12A4699
:10172C00002104F0D5F8668070BDA0806080FBE7D6
:10173C00F0B4FF29C1F38107C1F38112C1F3011584
:10174C00477401F003078CBF002101210170C168AF
:10175C00C47C067CC2740574877461B1A41B61429D
:10176C00A2EB050561416A426A41914203D0F0BC8B
:10177C004188FFF7C0BFF0BC704700002DE9F84F5F
:10178C00C3680446002B00F0848004F03DF86369C4
:10179C00C01AB0F5967FF8D372B63F4AE368A588B5
:1017AC003E4994F80090D2F804C01D44976813F891
:1017BC00010BA669D1F800E0B9F1000F30D0DFF8C9
:1017CC00E8903749DFF8E480BEFBF1F1BEFBF8F896
:1017DC00BEFBF9FEA1EB0808A1EB0E0E013951601E
:1017EC0000219160E169C1F30F298021084214BFE7
:1017FC00F246C246C6F81090D2F808B0D345FBD8D2
:10180C004910C6F8149005D0C9B2D2F808B0D34527
:10181C00FBD9EBE7AB4234D2802113F8010BF4E790
:10182C002049DFF88C80DFF88CA0BEFBF1F1BEFB09
:10183C00F8F8BEFBFAFEA1EB0808A1EB0E0E01397D
:10184C005160C2F80890E169C1F30F298021084268
:10185C0014BFF246C246C6F81090D2F808B0D34571
:10186C00FBD84910C6F8149005D0C9B2D2F808B00C
:10187C00D345FBD9EBE7AB4203D2802113F8010B24
:10188C00F4E7054BC3F804C09F6062B603F0BCFFDD
:10189C006061BDE8F88F00BF10E000E01C00002084
:1018AC0000350C00801A0600D0121300A02526006B
:1018BC0080841E0035B70C0038B5437805460C46BD
:1018CC0033B1B0F90600002802DB002103F002FF5F
:1018DC006B78EC803BB10121204603F0FBFE00212C
:1018EC00204603F045FF222C18D80D4B33F9143049
:1018FC00C3F30313042B11D80A4A52F82330222CB9
:10190C00AB618CBF0F23064B074A9CBF33F81430D6
:10191C0003F00F0352F82330EB6138BD0023EEE7E0
:10192C00FC62000808000020BC5F0008F8B5002528
:10193C0004460F461646194645700572C56045614A
:10194C00FFF7F6FE39462046FFF7D5FE2046314616
:10195C00FFF7B2FF2046F8BD4388F0B58B421ED985
:10196C00037AC2F30747C2F30726D5B23BB15F43F4
:10197C005E435D43C7F30727C6F307262D0A90F88D
:10198C0013C090F810E0C468E64509D101EB4101A1
:10199C002144037CCF54437CCE54837CCD54F0BD86
:1019AC0004EB8101120E1BB9D3B201F80C30F0E735
:1019BC005343C3F30723F8E782880021C06803F080
:1019CC0087BF836810B504462BB1032201469847A4
:1019DC000023C4E90233204610BD2DE9F04700F185
:1019EC00280504462B46002100F1C80299601033EB
:1019FC009342FBD103F006FF0026814604F5A07745
:101A0C00A4F1040804F5A57A284607F8016BFFF742
:101A1C00D8FF48F8049F5745C8F8186105F1100520
:101A2C00F2D12046C4F87461BDE8F087D0F8742177
:101A3C000346092A07DC0020303302019A5822B1F0
:101A4C0001300A28F9D14FF0FF307047826810B589
:101A5C000AB904F047F8C368BDE81040184738B518
:101A6C00002383608B6804460D462BB102229847F5
:101A7C00EB68E360AB68A360204638BD2DE9F04706
:101A8C0086B005460E4699461146FFF7CFFF041E59
:101A9C003FDB8B68002B3CD002AF05EB840ACAF805
:101AAC00C8603846FFF7DBFF97E803006B4626015A
:101ABC0083E80300AA19283292E8030087E80300A0
:101ACC0093E8030082E8030006F12808049BA8446D
:101ADC00D8F80820C8F80830059B0492D8F80C20D8
:101AEC003846C8F80C300592FEF72AFE01222B1955
:101AFC00CAF8F09083F8402103F084FE45F82400E6
:101B0C00D5F874310133C5F87431204606B0BDE800
:101B1C00F0874FF0FF34F8E730B504460D4685B03A
:101B2C0011466846FFF79BFF00236A46294620466C
:101B3C00FFF7A4FF04466846FEF702FE204605B0F8
:101B4C0030BD232970B504461BD800230C2505FB9A
:101B5C0003F6A65FD8B2B1420DD00133042BF6D1F7
:101B6C00012A0CD100230C2505FB03F2A65ED8B28A
:101B7C00013601D1A15270BD0133042BF4D11846AA
:101B8C00F9E70420F7E7000070B503464FF6FF7243
:101B9C00012500240B4E00F130011A805E601D728D
:101BAC005C720C338B42F8D1074B0286998EA0F8ED
:101BBC009010D98EA0F892105B8EA0F89620A0F809
:101BCC00943070BD00093D00FC620008232970B5FB
:101BDC0005460E4621D80122FFF7B3FF0328044621
:101BEC001BD8232E0BD0B5F99630013307D1012128
:101BFC00304603F06FFD0121304603F0B9FD0C2097
:101C0C00002300FB045485F88530627A237A6168DE
:101C1C0005F1340000F0DAF82E8670BD82B0F8B50C
:101C2C00232906AC05460E4684E80C0029D801226F
:101C3C00FFF787FF0328044623D80C2707FB005720
:101C4C00079BBDF820207B609DF82230232E3A8123
:101C5C00BB720BD0B5F99630013307D10121304658
:101C6C0003F038FD0121304603F082FD0C2000FB0F
:101C7C0004547968237A627A05F1340000F0A6F8EE
:101C8C002E86BDE8F84002B0704700002329F0B55D
:101C9C0019D803464FF6FF74012600270A4D00F1B0
:101CAC003002B3F900C00C338C4501BF23F80C4C47
:101CBC0043F8085C03F8046C03F8037C9342F0D1FE
:101CCC004FF6FF730386F0BD00093D00F0B587B0F9
:101CDC008DF80F200022232904460D461F468DF84F
:101CEC0017203FD8FFF72DFFB4F9303006469D4240
:101CFC0010D0032803D99DF8170007B0F0BD0C21B4
:101D0C0001FB004104F134000B7A4A7A496800F077
:101D1C005DF82586232D07D0B4F99630013303D115
:101D2C000021284603F024FD0C2000FB0646B37A64
:101D3C000DF1170201934FF47A730DF10F0100931B
:101D4C0004F13400012300F069F9232DD3D0012FC5
:101D5C00D1D1B4F996300133CDD13946284603F0B0
:101D6C0007FDC8E71046C8E70148FFF70DBF00BFE5
:101D7C00D806002070B50D0E445991FAA1F3B3FAB0
:101D8C0083F30F269B0006FA03F324EA030491FA6B
:101D9C00A1F1B1FA81F1890002FA01F1214341511B
:101DAC0070BD00000346074A106853B1064A9342BF
:101DBC0005D002F57842934203D101F04BBD01F0FE
:101DCC0039BD70471C000020003800402DE9F74F4A
:101DDC000D46174698460446002800F0D0808649E8
:101DEC00B0F95E0002F09AFC84498146B4F95C00BB
:101DFC0002F094FC82498246B4F9600002F08EFC39
:101E0C0080490646B4F9620002F088FC8346B9F1B9
:101E1C00000F00F0B480BAF1000F00F0B080002E7B
:101E2C0000F0AD805146484602F090FC594682467F
:101E3C00304602F08BFC01468146504602F086FC8F
:101E4C00A065BAF1000F00F09A80B9F1000F00F014
:101E5C009680002800F09380B4F9623020605A1C00
:101E6C0014BF4FF480234FF40073A3614FF48273BB
:101E7C006360FFF797FFB5EB500FC0F08380002332
:101E8C00002617F0FD0FE3610CBF33460123022F30
:101E9C00636134BF3346022323610723B045E362F9
:101EAC0014BF33468023B4F95E00C4E90836A6603B
:101EBC00A662E660504902F011FCB4F95C004F498F
:101ECC0002F00CFCB4F960004D4902F007FC2369E8
:101EDC00B342B4F9603008BF0225C3F3031218BF34
:101EEC000125042A8CBF3046474903F00F0398BFE5
:101EFC0051F82200454A52F823100B0EC65891FA9D
:101F0C00A1F2B2FA82F39A000F239340334091FA74
:101F1C00A1F2B2FA82F2022D4FEA820223FA02F304
:101F2C004FEA11254DD0042B02D10822FFF722FFD6
:101F3C00C26822EA050295FAA5F50123B5FA85F5E2
:101F4C0003FA05F51543C5602E49B4F9620002F099
:101F5C00C5FB23682E4A93423FD12E4B9A6942F41B
:101F6C0080529A619B6903F480530093009B204636
:101F7C0001F011FD2268136843F04003136003B0B5
:101F8C00BDE8F08FB5EB900F01D3082378E7B5EBE4
:101F9C00D00F01D3102373E7B5EB101F01D3182317
:101FAC006EE7B5EB501F01D3202369E7B5EB901F0B
:101FBC0001D3282364E7B5EBD01F2CBF3023382383
:101FCC005EE7042B02D10822FFF7D4FEC36823EA94
:101FDC00050395FAA5F5C360B6E70F4A9342C6D13F
:101FEC000C4BDA6942F48042DA61DB6903F480431A
:101FFC000193019BBBE700BFF4610008C4610008BA
:10200C00246200085462000808000020BC5F00082D
:10201C000030014000100240003800402DE9F0472C
:10202C00DDF820800C4615461E469DF824905BB1C9
:10203C00B8F1000F0BD0076800F06AF8824626440E
:10204C00B44207D1002003E0B8F1000F1BD10120EE
:10205C00BDE8F087BB689A07FCD514F8013B3B73CD
:10206C00B9F1000F05D1BB68DB07FCD5FB6805F89F
:10207C00013BB8F1FF3FE3D000F04AF8A0EB0A00B7
:10208C004045DDD3E3E70220E2E7704738B50E4B5D
:10209C00054618784FF47A73B3FBF0F30B4A1068CB
:1020AC00B0FBF3F000F0A0F8044658B90F2D09D896
:1020BC00024629464FF0FF3000F042F82046044B10
:1020CC001D6038BD0120FCE7000000201C00002032
:1020DC0004000020074A08B51368032043F01003DE
:1020EC00136000F01BF80020FFF7D0FFFFF7CDFFC7
:1020FC00002008BD00200240034A044B11681B78E5
:10210C000B441360704700BF040A0020000000203D
:10211C00014B1868704700BF040A002007490302EE
:10212C00CA6803F4E06322F4E0621204120C134355
:10213C0043F0BF6343F40033CB60704700ED00E025
:10214C00164B30B5DC68C4F30224C4F10703251D1B
:10215C00042B28BF0423062D4FF0FF3598BF002415
:10216C0005FA03F388BF033C21EA0303A34005FAF5
:10217C0004F422EA0402002843EA0203ACBF00F193
:10218C006040074A4FEA0313DBB2ABBF00F5614076
:10219C0000F00F0080F80033135430BD00ED00E068
:1021AC0014ED00E0002808DB0123420900F01F00B9
:1021BC0003FA00F0014B43F82200704700E100E005
:1021CC0000280DDB0122430900F01F0002FA00F089
:1021DC00044A203342F82300BFF34F8FBFF36F8FB5
:1021EC00704700BF00E100E00138B0F1807F0AD2F7
:1021FC00F021064B064A586082F823100020072273
:10220C0098601A6070470120704700BF10E000E032
:10221C0000ED00E0002809DB0122430900F01F005B
:10222C0002FA00F0024A603342F82300704700BF04
:10223C0000E100E0704708B5FFF7FCFF08BD0000A7
:10224C0008B590F82130022B03D0042383630120BE
:10225C0008BD03681A6822F00E021A601A6822F090
:10226C0001021A60174A93421CD0143293421BD0BD
:10227C00143293421AD0143293421AD0143293422D
:10228C001AD0143293420CBF4FF480134FF080736A
:10229C000D4A53604FF480730384436B7BB19847B2
:1022AC000020D5E70123F3E71023F1E74FF4807307
:1022BC00EEE74FF48053EBE74FF48033E8E7184632
:1022CC00C6E700BF080002400000024090F8210061
:1022DC0070470000044A08B55169014202D05061B0
:1022EC0001F066FF08BD00BF000401402DE9F8466F
:1022FC0006460F4691461D464FEA114A3368BAF11D
:10230C00010F0CBF5C699C6927EA0404A4B2B4FAFF
:10231C0084F46409A14501D0002017E06A1CEED0BA
:10232C00FFF7F6FE089BC01AA84201D8002DE5D194
:10233C00002320220120336386F83D2086F83E30AE
:10234C00326C86F83C3042F020023264BDE8F886EC
:10235C007047000070B5044608B9012070BD90F8B4
:10236C003D3003F0FF021BB980F83C20FFF7F0FF73
:10237C002423226884F83D30136823F00103136092
:10238C0001F058FA3F4A6368934294BF3E4A3F4A71
:10239C0090428CBF00220122002ADED13C4E2268E2
:1023AC00B0FBF6F65168013821F03F013143516022
:1023BC003449156A8B4281BF4FF4967171434FF4C7
:1023CC007A76B1FBF6F125F03F0594BF711C013113
:1023DC0029431162D1692B4D21F44F41AB4221F0BD
:1023EC00FF0132D85B00B0FBF3F0431C40F6FC70ED
:1023FC00034242D0C3F30B030B43D3611168D4E9FE
:10240C00073021F0C00103430B4313609168D4E9FA
:10241C00030321F40341034321F0FF010B439360B9
:10242C00D168D4E9053021F0FF0103430B43D3609D
:10243C001368002043F0010313602023206484F808
:10244C003D30206384F83E0088E7A56855B903EB5E
:10245C004303B0FBF3F30133C3F30B037BB143F43E
:10246C000043C9E719256B43B0FBF3F30133C3F306
:10247C000B0323B143F44043BEE70423BCE7012321
:10248C00BAE700BFA08601007F841E00FF083D0054
:10249C0040420F002DE9F04F044685B01E460F4612
:1024AC009146FFF735FE94F83D300546202B03D0BE
:1024BC00022005B0BDE8F08F0090192301222046C0
:1024CC004849FFF713FF0028F2D194F83C30012B58
:1024DC00EED0012384F83C3023684FF0010A1A68CF
:1024EC00DFF800B1D20758BF1A6807F0FE075CBFCF
:1024FC0042F001021A601A6822F400621A60242366
:10250C0084F83D3000232364A3F58033E362226812
:10251C004FF001111368204643F480731360334667
:10252C0000220095FFF7E2FE08B10120C1E7236805
:10253C004FF0A0081F61FFF7EBFD054623685A69B1
:10254C005B69C2F34002C3F3802394F83D10A029C9
:10255C0001D0134321D04FF02008236884F83D802C
:10256C005A6912F0020F1A6842F400721A6024D0F1
:10257C00002203925A69204603929B69012203931D
:10258C00039B184919230095FFF7B0FE0028CCD106
:10259C0084F83D8084F83C008BE7FFF7B9FD401BC5
:1025AC00B04200D80EB984F83D8023685A695B6943
:1025BC00C2F34002C3F38023C7E76FF4806259462D
:1025CC005A612046192301220095FFF78FFE00283F
:1025DC00ABD10AF1010ACA4599D384F83D8084F83D
:1025EC003C00A2E702001000F7B50024009401940F
:1025FC0090F83D40089D202C02D0022003B0F0BD85
:10260C00082D354F01D0012D1ED146F2A8163C687D
:10261C00B4FBF6F6192474430194019C013C01941B
:10262C00019C6CB92023046380F83D3080F83E4057
:10263C00036C80F83C4043F0200303640120DDE789
:10264C000468A469A407E8D446F2A8163C68B4FB55
:10265C00F6F6192474430194019C013C0194019CED
:10266C00002CDFD004682668B705F5D490F83C60E0
:10267C00012EC2D02668F6075EBF266846F001061A
:10268C002660266826F400662660212680F83D60C8
:10269C00102680F83E60002606644385438DC56293
:1026AC0041640385036B42620093009B112B05D19F
:1026BC00B5F52A0F02D0B5F12A4F03D1236843F4A4
:1026CC0080732360002380F83C306268184642F423
:1026DC00E062626092E700BF1C00002037B590F802
:1026EC003D4004F02804282C31D100292DD0002A9B
:1026FC002BD090F83C40012C29D005682C68E407BD
:10270C005EBF2C6844F001042C602C6824F4006437
:10271C002C60292480F83D40202480F83E40002481
:10272C0004644285428DC36201946B6941620193DA
:10273C00AB69028580F83C4020460193019B6B6895
:10274C0043F4E0636B6003B030BD0120FBE7022073
:10275C00F9E737B590F83D4004F02804282C31D126
:10276C0000292DD0002A2BD090F83C40012C29D0E8
:10277C0005682C68E4075EBF2C6844F001042C60EB
:10278C002C6824F400642C602A2480F83D4020241A
:10279C0080F83E40002404644285428DC36201945B
:1027AC006B6941620193AB69028580F83C4020461D
:1027BC000193019B6B6843F4E0636B6003B030BD25
:1027CC000120FBE70220F9E790F83D30202B14D1D3
:1027DC00282380F83D30036800201A68D2075EBFBA
:1027EC001A6842F001021A601A6842F480621A6098
:1027FC005A6842F440725A60704702207047704722
:10280C007047704770477047002370B5406A026884
:10281C0090F83D101468466B856B24F48064B362A9
:10282C00AB62146043851468736324F001046B631A
:10283C00146090F83D40C9B2602C08D1202280F879
:10284C003D2080F83E300364FFF7DDFF70BD01F0E2
:10285C00280128290DD1146844F00104146014686F
:10286C0044F480641460036380F83D10FEF7ABFD04
:10287C00ECE7202280F83D2080F83E30F6E700009F
:10288C0010B590F83D2090F83E10044610290368CE
:10289C00D2B212D1222A10D1196821F40061196028
:1028AC005968090504D4602A1CBF202284F83D20F5
:1028BC000022226384F83E2007E002F02801282938
:1028CC00EED10022226384F83D105A6812F40062A3
:1028DC004CD05A68606B22F400625A6090F8213038
:1028EC00012B364B28D04363FFF7AAFC50B122686A
:1028FC00606B136823F001031360202384F83D30D0
:10290C00436B984794F83D30226CDBB2520712D5DA
:10291C00282B10D122682046536823F4E0635360BF
:10292C00274B2022E3620023236384F83D2084F8A4
:10293C003E30FEF71DFD10BDA06B4363FFF780FC1E
:10294C000028DFD023685A69520605D51A69636AD4
:10295C001A70636A013363622268A06B136823F0F8
:10296C0001031360202384F83D30C9E794F83D102F
:10297C00602915D1202184F83D1022645A69500633
:10298C0005D51A69636A1A70636A01336362226837
:10299C002046136823F001031360FFF734FFB1E7FF
:1029AC005A69510605D51A69636A1A70636A01334C
:1029BC0063622046FEF707FDA4E700BF1528000858
:1029CC000000FFFF70B5036804465A68C16A90F8AE
:1029DC003E5090F83D00102D8CB0EEB2C0B202D03B
:1029EC00402E40F0B7829D695869C60707D4B1F5EF
:1029FC002A0F02D0B1F12A4F52D10CB070BD910503
:102A0C004ED5E26AB2F52A0F0CD10122E26294F89B
:102A1C003E20402A11D1226D52B9626C02F0FE02A6
:102A2C001A61EAE7E26AB2F12A4FF0D10822EDE727
:102A3C00626C42F00102D2B2F2E72269B2F5804F29
:102A4C001BD194F83D20212A626C12D102F0FE02B7
:102A5C001A61626B12B9A16B0029CED0926A1AB9B5
:102A6C00A26B926A002AC8D05A6842F400625A607B
:102A7C00C3E742F00102D2B2EAE7226D32B9626CCE
:102A8C00D21102F0060242F0F002C9E7226D012ACF
:102A9C00B3D1626CD21102F0060242F0F102BFE730
:102AAC00060703D5910501D5626CE4E7860740F172
:102ABC00E680910540F1E38094F83E10E26A256BC4
:102ACC0094F83D00C9B2222840F0D180206D40B965
:102ADC00402906D100905A6900929B690093009B93
:102AEC008BE7216D81B92069B0F5404F0CD1019174
:102AFC005A6901929A690192019A1A6842F4807299
:102B0C001A60236D013328E0618D89B251B90291AD
:102B1C005A6902929A690292029A1A6842F40072F5
:102B2C001A6019E0618D89B201294AD112F5803FF2
:102B3C001CD11A6822F480621A605A6812F400627E
:102B4C000DD01A6822F480621A60002203925A692E
:102B5C0003929B690393039B002323654DE7049227
:102B6C005A6904929A690492049AD6E7082A1CD0EE
:102B7C00202A1AD0122D0DD1012A16D11A6822F44E
:102B8C0080621A60002205925A6905929B6905932E
:102B9C00059BE1E7102AF1D88F4921FA02F2D607FA
:102BAC00ECD51A6842F48062EBE71A6822F4806272
:102BBC001A60002206925A6906929A690692069A3F
:102BCC00ABE7618D89B2022933D1102A05D882492D
:102BDC00D140C94311F0010120D0196841F40061C2
:102BEC001960002107915969079199690791079913
:102BFC00196821F48061196059680D05ACD512F57E
:102C0C00803F06D0511E1F29A6D8744ACA40D0074F
:102C1C00A2D55A6842F480525A609DE7186840F475
:102C2C008060186008915969089199690891089910
:102C3C00E2E7196841F480611960596809050ED5FD
:102C4C0012F5803F07D0013A1F2A08D8634921FAB0
:102C5C0002F2D60703D55A6842F480525A60002219
:102C6C0009925A6909929B690993099B74E700229E
:102C7C000A925A690A929B690A930A9BBDE66D07F0
:102C8C00596840F1AD800E053FF5B7AE0506C0F3AF
:102C9C00800169D5500567D5002968D194F83D208D
:102CAC00258D94F83E10D2B2E06AC9B2C5B9212A7A
:102CBC0018D1082878D0202876D010F5803F73D012
:102CCC005A6822F4E0625A6011232363002384F8CB
:102CDC003E302023204684F83D30FFF790FD8CE6F3
:102CEC00212A05D040297FF488AE222A7FF485AEB4
:102CFC00628D92B21AB95A6822F48062B7E694F8DF
:102D0C003E20402A26D1226D62B9E26C012AA26CC7
:102D1C0004D1D2B21A61236D02331EE7C2F307222B
:102D2C001A61EEE6226D012A02D1A26CD2B2F7E74B
:102D3C00226D022A7FF461AE94F83D20222A04D140
:102D4C001A6842F480721A6057E694F83D20212AE2
:102D5C007FF453AE626A12F8011B19616262638DD3
:102D6C00013B9BB2638548E600293FF446AE9205D1
:102D7C007FF543AEE16A94F83D20212A7FF43DAE05
:102D8C00628D92B2002AE5D108290DD020290BD0F2
:102D9C0011F5803F08D0596821F4E0615960112386
:102DAC00236384F83E2094E75A68204622F4E062BC
:102DBC005A601A6842F400721A60002320222363BE
:102DCC0084F83D2094F83E2084F83E30402A84D18B
:102DDC00FFF717FD11E600BF140001008180008091
:102DEC000E053FF50AAE4506C0F3800148D55005E7
:102DFC0046D5002947D194F83D20222A7FF4FDAD19
:102E0C00628D92B2032A14D91A69636A1A70636AC2
:102E1C0001336362638D013B9BB26385638D9BB20F
:102E2C00032B7FF4EAAD2268536823F4806353606C
:102E3C00E3E5E06A02283FF4E0AD012A3FF6DDADA0
:102E4C001A6822F480621A605A6822F4E0625A60AE
:102E5C001A69636A1A70636A01336362638D013B9A
:102E6C009BB26385202384F83D3094F83E3084F87F
:102E7C003E10402B68D121632046FFF7C3FCBCE514
:102E8C0000293FF4BAAD92057FF5B7ADE26A608DCB
:102E9C00616A80B2042809D15A6822F480625A60AF
:102EAC001B690B70636A0133636258E7608D80B2F3
:102EBC0003280CD15868042A20F480605860EFD0A5
:102ECC00022AEDD01A6822F480621A60E8E7608D5D
:102EDC0080B20228E4D1012A01D0102A28D11A6824
:102EEC0022F480621A601B690B70626A531C636265
:102EFC00638D013B9BB2638523681B695370636AC6
:102F0C00226801336362638D013B9BB26385536816
:102F1C0023F440735360202384F83D3094F83E3002
:102F2C00402B4FF0000384F83E300DD12363A3E710
:102F3C00042A01D0022A03D11A6842F48062D1E734
:102F4C001A6842F40072CDE7122320462363FFF780
:102F5C0057FC52E5216C11B3002559698E0728D511
:102F6C00960526D5226C02B19D6994F83D2002F09D
:102F7C002802282A16D15A686FEA950122F4806239
:102F8C005A602B064FF00003204654BFA289228BB7
:102F9C0001F0010184F83C30FEF7C6F92DE59D697E
:102FAC005969DBE76FF002025A61002384F83C3068
:102FBC0023E5CE0640F1B180950540F1AE8094F842
:102FCC003D505A68EDB222F4E0625A6000220B9236
:102FDC005A690B921A6842F001021A600B9A1A682D
:102FEC0022F480621A605A68120520D505F0F702A7
:102FFC00222A4AD1A06B0268526892B26285628D15
:10300C0092B21AB1226C42F0040222645A6822F481
:10301C0000625A60FFF75AF9012808D0A06B794B6F
:10302C004363FFF70DF910B1A06B436B9847638DA9
:10303C009BB213B323685A69560709D51A69636A98
:10304C001A70636A01336362638D013B9BB26385C3
:10305C0023685A69500609D51A69636A1A70636A3B
:10306C0001336362638D013B9BB26385638D9BB2BD
:10307C001BB1236C43F004032364236C13B320466D
:10308C000CB0BDE87040FFF7FBBB606B0268526888
:10309C0092B26285628D92B21AB1226C42F0040235
:1030AC0022645A6822F400625A60FFF70FF9012873
:1030BC00BDD0606B534B4363FFF7C2F80028B6D00A
:1030CC00606BB2E72A2D06D123632823204684F8AF
:1030DC003D30FEF762F994F83D30282B0CD14A4B69
:1030EC002022E36200232046236384F83D2084F8E9
:1030FC003E30FEF73DF980E4236B222B02D0222DCB
:10310C007FF47BAC00232022236384F83D2084F8D9
:10311C003E302046FEF741F96FE400F0F70021281D
:10312C00C1F3800535D1090627D5560525D53DBBFC
:10313C0094F83D10628DC9B292B2002A3FF45DAC96
:10314C00626A12F8015B1D616262628D013A92B291
:10315C006285628D92B2002A7FF44FAC29297FF4EC
:10316C004CAC5A6822F480625A60282320632046B3
:10317C0084F83D30FEF723F93FE4002D3FF43DACDD
:10318C0095057FF53AAC628D92B2002A3FF435ACCE
:10319C00E0E5480627D5510525D53DBB94F83D20E3
:1031AC00618DD2B289B200293FF427AC1969636AE8
:1031BC001970636A01336362638D013B9BB2638553
:1031CC00638D9BB2002B7FF418AC2A2A7FF415ACCC
:1031DC002268536823F480635360222323632823DB
:1031EC0084F83D3095E7002D3FF407AC92057FF550
:1031FC0004AC628D92B2002A3FF4FFAB1A69636A89
:10320C001A704FE6152800080000FFFFF8B5036898
:10321C0004465F695E68FA05C7F300250BD5F00517
:10322C00C6F3002507D56FF4807201255A611A6820
:10323C0042F400421A60B90506D5F20542BF6FF49C
:10324C00007245F002055A61780537D5F10535D580
:10325C0094F83EC0618D94F83D20BCF1200F206B9A
:10326C0089B2D2B25AD1002958D102F0F7012129E2
:10327C0003D0282A52D1212850D194F83D20E16A5C
:10328C00D2B2082901D020292AD1282A28D12C4AA7
:10329C002046E2625A6822F4E0625A606FF480625F
:1032AC005A611A6822F480621A6000232022236378
:1032BC0084F83D2084F83E30FEF75AF83A053BD5A9
:1032CC00F30539D56FF40062236845F008055A619F
:1032DC00236C20461D432564BDE8F840FFF7D0BAA7
:1032EC00212A17D116492046E1622263202284F854
:1032FC003D20002284F83E205A6822F4E0625A6095
:10330C006FF480625A611A6822F480621A60FEF7C8
:10331C0056F8D3E76FF480625A61CFE76FF480629E
:10332C005A6194F83E2045F00405102A02BF1A6831
:10333C0042F400721A60C1E7002DC9D1F8BD00BF7C
:10334C000000FFFF90F83D007047006C70470000D4
:10335C002DE9F341054638B30368DB0710D42B681D
:10336C009F075ED42B68190700F195802B685A07CC
:10337C0000F1BF80E869002840F02C81002029E092
:10338C008F4C636803F00C03042B07D0636803F0C5
:10339C000C03082B0AD16368DE0307D523689C0352
:1033AC00DDD56B68002BDAD1012013E06B68B3F527
:1033BC00803F12D1236843F480332360FEF7A8FECC
:1033CC00064623689803CAD4FEF7A2FE801B642825
:1033DC00F7D9032002B0BDE8F0819BB9236823F430
:1033EC0080332360236823F480232360FEF790FE50
:1033FC00064623689903B2D5FEF78AFE801B642823
:10340C00F7D9E6E7B3F5A02F236803D143F4802363
:10341C002360CFE723F480332360236823F48023D5
:10342C00CBE7674C636813F00C0F07D0636803F0AD
:10343C000C03082B10D16368DA030DD423689B07A7
:10344C0002D52B69012BAFD123686A6923F0F803ED
:10345C0043EAC203236085E72A695A4B6AB1012209
:10346C001A60FEF755FE064623689F07ECD4FEF75C
:10347C004FFE801B0228F7D9ABE71A60FEF748FE17
:10348C000646236898077FF56DAFFEF741FE801B5B
:10349C000228F6D99DE7AA69494E4B4BDAB10122B5
:1034AC001A60FEF735FE0446736A9B070DD54FF480
:1034BC00FA52464B1B68B3FBF2F3019300BF019B1E
:1034CC005A1E0192002BF9D150E7FEF721FE001B8A
:1034DC000228E9D97DE71A60FEF71AFE0446736AE2
:1034EC009F077FF543AFFEF713FE001B0228F6D9AA
:1034FC006FE7334CE369D80024D40127E36943F028
:10350C008053E361E36903F080530093009B304EDA
:10351C003368D90518D5EB68012B26D1236A43F003
:10352C0001032362FEF7F4FD41F288380646236A54
:10353C009B073FD5002F3FF41DAFE36923F0805369
:10354C00E36117E70027E2E7336843F480733360E5
:10355C00FEF7DEFD80463368DA05DCD4FEF7D8FDD5
:10356C00A0EB08006428F6D933E7ABB9236A41F223
:10357C00883823F001032362236A23F004032362B7
:10358C00FEF7C6FD0646236A9807D3D5FEF7C0FDA5
:10359C00801B4045F7D91CE7052B236A03D143F068
:1035AC0004032362BAE723F001032362236A23F0A6
:1035BC000403B6E7FEF7ACFD801B4045B7D908E71E
:1035CC000010024000004242800442421C000020D5
:1035DC00007000402A4B5A681C4602F00C02082A64
:1035EC003DD00023274E022833602BD1FEF790FDEF
:1035FC000746236899011FD42B6AB3F5803F05D188
:10360C006268A96822F400320A436260696A6268DF
:10361C000B4322F474121343636001233360FEF7EF
:10362C0077FD054623689A013FF5A8AEFEF770FDBD
:10363C00401B0228F6D9CCE6FEF76AFDC01B022817
:10364C00D7D9C6E6FEF764FD054623689B017FF5D6
:10365C0095AEFEF75DFD401B0228F6D9B9E60128B0
:10366C003FF4B8AE5B682A6A03F4803191427FF470
:10367C009BAE6A6A03F4701393423FF47FAE93E6F9
:10368C00001002406000424230B5184B87B002ACCB
:10369C0003F11005224618685968083303C2AB427F
:1036AC001446F7D140F201231149ADF804304B68B0
:1036BC0003F00C02082A17D1C3F3834206A8024474
:1036CC00DB0312F8102C0CD54B680A48C3F34043AB
:1036DC00504306AA134413F8143CB0FBF3F007B0A4
:1036EC0030BD05485043FAE70248F8E7345F00085C
:1036FC000010024000127A0000093D002DE9F04153
:10370C000D46044610B90120BDE8F081444A136807
:10371C0003F007038B4228D321688E0730D4CA07E5
:10372C0043D43F4A136803F00703AB4265D82268C1
:10373C003C4D12F0040F6CD1130706D56B6822694F
:10374C0023F4605343EAC2036B60FFF79DFF6B6881
:10375C00354AC3F30313D35CD840344B1860344B55
:10376C001868FEF793FC0020CEE7136823F00703DC
:10377C000B431360136803F007038B42C3D1CBE7F1
:10378C00284B11F0040F1EBF5A6842F4E0625A60D5
:10379C00080742BF5A6842F460525A605A68A068DF
:1037AC0022F0F00202435A60B9E762681D4E012A0A
:1037BC0033681AD113F4003FA5D0736841F28838EE
:1037CC0023F0030313437360FEF7A2FC07467368F0
:1037DC00626803F00C03B3EB820FA2D0FEF798FCE7
:1037EC00C01B4045F3D903208EE7022A02D113F007
:1037FC00007FE1E713F0020FDEE7136823F0070305
:10380C002B431360136803F00703AB427FF47BAFC9
:10381C008DE76B68E16823F4E0630B436B608BE727
:10382C000020024000100240FC5F00081C00002039
:10383C0004000020044B054A5B68C3F30223D35CED
:10384C00034A1068D8407047001002400C60000812
:10385C001C000020044B054A5B68C3F3C223D35CF5
:10386C00034A1068D8407047001002400C600008F2
:10387C001C00002003682DE9F341D907054620D52B
:10388C00354CE369DA0032D40127E36943F0805305
:10389C00E361E36903F080530193019B2F4E33687E
:1038AC00DB0526D5236A13F4407336D1236A6A6884
:1038BC0023F44073134323621FB1E36923F0805355
:1038CC00E3612868830706D52349AB684A6822F46C
:1038DC0040421A434A6010F010001BD01E4AE9689F
:1038EC005368002023F480030B43536012E000273D
:1038FC00D4E7336843F480733360FEF709FC8046E9
:10390C003368D805CED4FEF703FCA0EB080064287E
:10391C00F6D9032002B0BDE8F0816A6802F4407267
:10392C009A42C3D001200E4A236A1060002023F46F
:10393C00407110602162D907B8D5FEF7E9FB41F25E
:10394C0088380646236A9A07B0D4FEF7E1FB801B41
:10395C004045F7D9DDE700BF001002400070004081
:10396C0040044242036810B51A680446920708D511
:10397C005B689B0705D500F0F3FE6FF0020223682D
:10398C005A604FF40032024B5A610123637410BD2C
:10399C0000040140704710B50446002834D00023C1
:1039AC00836290F8513003F0FF021BB980F850206D
:1039BC00FFF7F0FF0223226884F851301368A169E5
:1039CC0023F040031360D4E901300343E068034360
:1039DC002069034360690343E0690343206A03439E
:1039EC00A06A034301F40070090C034301F00401C5
:1039FC0013605160D369002023F40063D361012369
:103A0C00606584F8513010BD0120FCE770477047A9
:103A1C00036810B51A69044691070ED5DA68920747
:103A2C000BD56FF002021A61012202779B699B078A
:103A3C0077D001F05DFC0023237723681A695007C7
:103A4C0010D5DA6851070DD56FF004021A61022205
:103A5C0022779B69204613F4407F68D001F048FC24
:103A6C000023237723681A6912070FD5DA68100729
:103A7C000CD56FF008021A6104222277DB6920460C
:103A8C0099075AD001F034FC0023237723681A6974
:103A9C00D20610D5DA68D0060DD56FF010021A6177
:103AAC0008222277DB69204613F4407F4BD001F0CB
:103ABC001FFC0023237723681A69D10708D5DA681D
:103ACC00D20705D56FF0010220461A6101F0E4FB24
:103ADC0023681A69100608D5DA68110605D56FF047
:103AEC00800220461A6100F088F823681A69520691
:103AFC0008D5DA68500605D56FF0400220461A61E9
:103B0C00FFF785FF23681A69910622D5DA689206B9
:103B1C001FD56FF020022046BDE810401A6100F05E
:103B2C006BB801F0E3FB2046FFF770FF83E701F071
:103B3C00DDFB2046FFF76AFF92E701F0D7FB20463A
:103B4C00FFF764FFA0E701F0D1FB2046FFF75EFF13
:103B5C00AFE710BD1A4A036890420AD0B0F1804F0B
:103B6C0007D0A2F59432904203D002F580629042C5
:103B7C0015D14A6823F070031343114A90420AD0BE
:103B8C00B0F1804F07D0A2F59432904203D002F5E9
:103B9C008062904203D1CA6823F4407313434A698C
:103BAC0023F08003134303608B68C3620B6883624A
:103BBC00034B984204BF0B690363012343617047B5
:103BCC00002C014010B50446A0B190F83D3003F034
:103BDC00FF021BB980F83C2000F0BCFE02232068D9
:103BEC0084F83D30211DFFF7B5FF0123002084F838
:103BFC003D3010BD0120FCE7704770470368DA6860
:103C0C0022F49072DA605A6922F001025A61202380
:103C1C0080F83A307047000038B505460368C16833
:103C2C001A69192422F440520A431A618268006905
:103C3C00D9680243686921F4B05121F00C010243A8
:103C4C000A43DA605A69A96922F440720A435A613C
:103C5C000D4A934214D1FFF7FDFD44436B68642277
:103C6C009B00B4FBF3F4B4FBF2F102FB11431B0118
:103C7C003233B3FBF2F3286803EB0113836038BDD6
:103C8C00FFF7D8FDE9E700BF00380140704710B5D9
:103C9C00044640B390F8393003F0FF021BB980F8AA
:103CAC003820FFF7F3FF2423226884F83930D368D7
:103CBC00204623F40053D360FFF7AEFF23680020A7
:103CCC001A6922F490421A615A6922F02A025A6146
:103CDC00DA6842F40052DA602023E06384F8393069
:103CEC0084F83A3010BD0120FCE710B5044660B3EF
:103CFC0090F8393003F0FF021BB980F83820FFF739
:103D0C00C5FF2423226884F83930D368204623F475
:103D1C000053D360FFF780FF236800201A6922F458
:103D2C0090421A615A6922F022025A615A6942F091
:103D3C0008025A61DA6842F40052DA602023E06328
:103D4C0084F8393084F83A3010BD0120FCE790F843
:103D5C003930202B18D1A9B1A2B190F83830012BF1
:103D6C0012D0C28400238284212201620168C363C1
:103D7C0080F8383080F83920CA68184642F0800242
:103D8C00CA607047012070470220704790F83A30A3
:103D9C00202B20D1E9B1E2B190F83830012B1AD0A8
:103DAC00C285828500232222C36380F83A200268F0
:103DBC0080F838308162D168184641F48071D16046
:103DCC00516941F001015161D16841F02001D1608C
:103DDC007047012070470220704710B590F83A30B8
:103DEC00222B33D181680469B1F5805F836A026844
:103DFC0023D15268ECB9C2F3080223F8022B836278
:103E0C00C48D013CA4B2C4858CB90368DA6822F075
:103E1C002002DA60DA6822F48072DA605A6922F0E1
:103E2C0001025A61202380F83A3000F00FFF002085
:103E3C000DE0D2B223F8012BE1E7591C52688162E4
:103E4C000CB91A70DCE702F07F02FAE7022010BD11
:103E5C00036870B51A6804461607D9685D6907D1FE
:103E6C00960659D58D0657D5BDE87040FFF7B5BFFE
:103E7C0005F0010001F4907505434DD0D60705D52A
:103E8C00CD0542BFE36B43F00103E363530704D555
:103E9C0018B1E36B43F00203E363960704D518B142
:103EAC00E36B43F00403E363150704D518B1E36B2C
:103EBC0043F00803E363E36B4BB3900604D5890628
:103ECC0002D52046FFF789FF236820465B69E56B26
:103EDC0003F0400305F008051D4319D0FFF78EFED3
:103EEC0023685A6952060FD55A69606B22F040025A
:103EFC005A6148B1254B4363FEF7A2F938B1606BA8
:103F0C00BDE87040436B1847204600F0B5FE70BD0D
:103F1C0000F0B2FEE563FAE7160628D50D0626D5A5
:103F2C0094F83920212AF2D1A168226AB1F5805F78
:103F3C0018D11188C1F308015960216981B9023285
:103F4C002262E28C013A92B2E284002ADFD1DA6872
:103F5C0022F08002DA60DA6842F04002DA60D6E7DA
:103F6C000132EDE7511C216212785A60E9E75006E4
:103F7C00CDD54A06CBD5DA68204622F04002DA606D
:103F8C00202384F8393000F064FEC0E79D3F000820
:103F9C0008B50023406AC385C38400F06DFE08BDDC
:103FAC0090F83830012B11D02423026880F8393076
:103FBC00D36823F00C0343F00803D360202380F86C
:103FCC003930002380F8383018467047022070478B
:103FDC0090F83830012B11D02423026880F8393046
:103FEC00D36823F00C0343F00403D360202380F840
:103FFC003930002380F8383018467047022070475B
:10400C0090F8392090F83A001043704786B0042895
:10401C0041D8DFE800F003101C2834001F4B204867
:10402C009A6942F004029A619B6903F004030193BC
:10403C00019B06B07047194B1A489A6942F0080266
:10404C009A619B6903F008030293029BF1E7134BFF
:10405C0015489A6942F010029A619B6903F01003AB
:10406C000393039BE5E70D4B10489A6942F020023D
:10407C009A619B6903F020030493049BD9E7074BD7
:10408C000B489A6942F040029A619B6903F0400325
:10409C000593059BCDE70020CBE700BF0010024045
:1040AC0000080140000C01400010014000140140C8
:1040BC0000180140F8B51449064600F02FFB01F03A
:1040CC001BF8124C054654F8203073B90E49304693
:1040DC0000F024FB0746A82001F0D2FA0646394628
:1040EC0001F046F854F825301E6054F825301C6851
:1040FC0044B1204601F01CF82046BDE8F840A82148
:10410C0001F0C0BAF8BD00BF8C600008D8090020CF
:10411C0037B50D4D2B68FDF7FBFF6C68AB680134B0
:10412C00E31A01932B68DB0304D5FDF7F1FFAB68B1
:10413C00E31A01934FF47A72019B5343B3FBF4F3EC
:10414C0002FB003003B030BD10E000E0FDF7E0BF33
:10415C00704708B5FDF7D0FFFEF76DF8FFF7F8FFD5
:10416C0008BD00000B4BDA68D2015EBFDA6842F082
:10417C008072DA600022084B5A601A6842F0010221
:10418C001A6000BF00BF00BF5868B0FA80F0400949
:10419C00704700BFF0ED00E0001000E008B5FFF73D
:1041AC00E1FFFDF797FFBDE8084000F0F3BD00000C
:1041BC000023012803F1010202D013464008F8E75E
:1041CC001421DBB24B43044A181D1044816811B111
:1041DC001A44136918477047700700200120FEF736
:1041EC0079B80220FEF776B80420FEF773B80820E1
:1041FC00FEF770B81020FEF76DB838B505242025F1
:10420C00A8B2FEF767F8013C4FEA4505F8D138BD76
:10421C0038B506244FF48065A8B2FEF75BF8013C74
:10422C004FEA4505F8D138BD0721204B06221975F8
:10423C00082183F82810092183F83C100A2183F8FF
:10424C00501017211A7083F86410002283F878102C
:10425C0083F88C1083F8A01083F8B4102821DA604E
:10426C001A625A639A64DA651A67C3F88420C3F831
:10427C009820C3F8AC20C3F8C02083F8C810C3F84A
:10428C00D42083F8DC10C3F8E82083F8F010C3F8CE
:10429C00FC2083F80411C3F8102183F81811C3F81B
:1042AC00242183F82C11C3F83821704770070020A3
:1042BC0038B5054CA4F5A075143C201DFCF740FA4C
:1042CC00AC42F9D138BD00BFB00800207B4B82B0A6
:1042DC009A69013842F001029A619B6903F001036B
:1042EC000193019B23282CD8DFE810F024002D002B
:1042FC0034003B00400047004C00530058005F0066
:10430C0068006D0074007D008200890092009B00A3
:10431C00A000A700B000B500BC002B002B002B00A8
:10432C00C100C8002B002B002B002B00CD00D200AD
:10433C00D900E000624A536843F0E06343F00103A4
:10434C00536002B070475E4A536823F0010343F098
:10435C00E063F5E75A4A536843F0E06343F0020325
:10436C00EEE7574A536823F00203F0E7544A5368C8
:10437C0043F0E06343F00403E2E7514A536823F04F
:10438C000403E4E74E4A536843F0E06343F0080348
:10439C00D6E74B4A536823F00803D8E7484A5368DA
:1043AC0043F0E06343F03003CAE7454A536823F017
:1043BC00300343F0E06343F01003C1E7404A536815
:1043CC0023F03003C3E73E4A536843F0E06343F005
:1043DC00C003B5E73A4A536823F0C00343F0E063E7
:1043EC0043F04003ACE7364A536823F0C003AEE712
:1043FC00334A536843F0E06343F44073A0E7304A18
:10440C00536823F4407343F0E06343F4007397E77D
:10441C002B4A536823F4407343F0E06343F48073F6
:10442C008EE7274A536823F4407390E7244A536875
:10443C0043F0E06343F4406382E7214A536823F47A
:10444C00406343F0E06343F4006379E71C4A53682C
:10445C0023F440637BE71A4A536843F0E06343F468
:10446C0080536DE7164A536823F480536FE7144A60
:10447C00536843F0E06343F4004361E7104A536828
:10448C0023F4004363E70E4A536823F0E06357E7D5
:10449C000B4A536823F0E06343F0807350E7084AFB
:1044AC00536823F0E06343F0007349E7044A536810
:1044BC0023F0E06343F0806342E700BF001002404A
:1044CC000000014070B50D0E445991FAA1F3B3FAF6
:1044DC0083F30F269B0006FA03F324EA030491FAF4
:1044EC00A1F1B1FA81F1890002FA01F121434151A4
:1044FC0070BD70B50D0E445991FAA1F3B3FA83F364
:10450C0004269B0006FA03F324EA030491FAA1F1B2
:10451C00B1FA81F1890002FA01F12143415170BDD8
:10452C00431C04D00C3131F90C3C5A1C01D1002035
:10453C007047834201F10C01F5D101207047000056
:10454C00624B2DE9F74F00F00F0253F82250431C39
:10455C0007460E4601F00709C1F3062BC0F30314FE
:10456C001FFA80F803D14821594800F00BF9204676
:10457C00FFF74CFDB9F1010F04464FEA156A45D11E
:10458C0050F80A1095FAA5F2B2FA82F203239200BF
:10459C0003FA02F221EA020295FAA5F0B0FA80F0D1
:1045AC00800083401343012244F80A3029462046F8
:1045BC0009F1FF39FFF786FFB9F1010F06D816F0A4
:1045CC00080218BF04222946FFF793FF54F80A107B
:1045DC00C6F3011695FAA5F2B2FA82F39A000F23EC
:1045EC0093400B4095FAA5F2B2FA82F2012E4FEAF3
:1045FC00820223FA02F322D0022E4BD0082B31D1A7
:10460C00042229462046FFF75DFF2BE0B9F1030F8A
:10461C000DD8DFE809F0021207105846FFF756FED6
:10462C000822C3E75846FFF751FE0922BEE78D2149
:10463C00274800F0A7F80022B8E74A46B6E7042B53
:10464C0004D1082229462046FFF73CFFE2682B0ADA
:10465C0022EA152293FAA3F5B5FA85F301259D40BC
:10466C001543E5601B4B9A6942F001029A619B6904
:10467C0003F001030193019BA8F10D03012B17D843
:10468C00154A536823F0E06343F08063536003B032
:10469C00BDE8F08F042B04D1082229462046FFF7F1
:1046AC0011FFE3682A0A23EA152592FAA2F2D8E749
:1046BC000F2F04D0A8F11308B8F1010FE7D8064A60
:1046CC00536823F0E06343F00073DFE7BC5F00083E
:1046DC00455F00080010024000000140431C06D159
:1046EC007047834202D18968FFF72ABF0C31B1F9B8
:1046FC0000305A1CF5D1B921014800F043B800BF75
:10470C00455F0008B1F900305A1C01D100207047F8
:10471C00834201D1486870470C31F3E7431C01D048
:10472C00FFF7F0BF002070474B6813B94FF0FF3014
:10473C007047834202D1B1F9000070470C31F3E7A6
:10474C0008B1FFF7F1BF4FF0FF30704703468B42C3
:10475C00084604D01BB100290CBF18460020704736
:10476C00034B1B6813B1034A10681847704700BF0E
:10477C00B0080020C80800200148FFF7F3B800BFBC
:10478C00B4080020FEE700000F4B1A6842F001024B
:10479C001A6059680D4A0A405A601A6822F08472ED
:1047AC0022F480321A601A6822F480221A605A6845
:1047BC0022F4FE025A604FF41F029A604FF000621E
:1047CC00034B9A60704700BF001002400000FFF8D6
:1047DC0000ED00E00438704703681D4A84B0934232
:1047EC000BD11C4B9A6942F400629A619B6903F4E9
:1047FC0000630093009B04B07047B3F1804F10D05E
:10480C00154A934218D0154A9342F4D1114BDA69E8
:10481C0042F00402DA61DB6903F004030393039BA7
:10482C00E9E70C4BDA6942F00102DA61DB6903F06B
:10483C0001030193019BDEE7064BDA6942F00202A9
:10484C00DA61DB6903F002030293029BD3E700BF3A
:10485C00002C014000100240000400400008004001
:10486C000368124A934206D102F56442936923F419
:10487C00006393617047B3F1804F06D00C4A9342AA
:10488C0009D00C4A93420BD070470B4AD36923F0E2
:10489C000103D3617047084AD36923F00203F8E798
:1048AC00054AD36923F00403F3E700BF002C014051
:1048BC0000040040000800400010024008B5431CF2
:1048CC0001460DD00D4B984212D00CD8B0F1804F50
:1048DC0010D0A3F5806398420ED00948FFF752FF21
:1048EC006FF00D0008BD074B9842F6D11920F9E77F
:1048FC001E20F7E71C20F5E71D20F3E70008004019
:10490C0014600008002C014008B5431C01460DD072
:10491C000D4B984212D00CD8B0F1804F10D0A3F5AB
:10492C00806398420ED00948FFF72CFF6FF00D0002
:10493C0008BD074B9842F6D11B20F9E71E20F7E77C
:10494C001C20F5E71D20F3E7000800401460000868
:10495C00002C014038B50446FFF73EFF0068FFF716
:10496C00ADFFD4E91012FDF7EBFB2068FFF7A6FFB3
:10497C00FDF718FC2068FFF7C7FF05462068FFF716
:10498C009DFF85420DD02068FFF7BEFFD4E91012C1
:10499C00FDF7D6FB2068FFF7B7FFBDE83840FDF701
:1049AC0001BC38BD2DE9FF4704468946B0F94C00DF
:1049BC00484990461F46DDF830A0FFF7AFFE464948
:1049CC000546B4F94E00FFF7A9FE0646002D7ED031
:1049DC00B4F94E30013301D0002878D03146284646
:1049EC00FFF7B4FE2060002871D03C4B984238D1C0
:1049FC0003F55843DA6842F48042DA60DA6822F44C
:104A0C008042DA609A6942F480429A619B6903F4AD
:104A1C0080430193019B2523A4F850302D49B4F910
:104A2C004C00FFF75BFE26B12B49B4F94E00FFF7A3
:104A3C0055FE94F851202A4B201D43F82200236880
:104A4C000C22C4E901390023C4E9038AC4E9062312
:104A5C0067612362002E35D104B0BDE8F047FFF743
:104A6C0044B9204B984215D103F5E6331A6942F448
:104A7C0000321A611A6922F400321A61DA6942F4BE
:104A8C000032DA61DB6903F400330293029B4FF4CA
:104A9C009373C1E7144B9842C0D1144D2B6943F466
:104AAC0080232B612B6923F480232B61EB6943F466
:104ABC008023EB61EB6903F480230393039B40F2A7
:104ACC002723A9E704B0BDE8F047FFF7E0B804B02E
:104ADC00BDE8F087C062000884620008003801401D
:104AEC00CC08002000440040004800400010024068
:104AFC0008B1FFF757BF704708B5074B90F8512026
:104B0C0053F82200FFF77CFA00F02200A0F12203F8
:104B1C005842584108BD00BFCC08002008B5074BCF
:104B2C0090F8512053F82200FFF76AFA00F02100A8
:104B3C00A0F121035842584108BD00BFCC08002009
:104B4C0070B50E46054610B94FF0FF3070BDFFF73B
:104B5C00D3FF04460028F7D1294611F8523F012211
:104B6C00337095F85100034B53F82000FFF70EF902
:104B7C002046EBE7CC08002070B50E460446F0B199
:104B8C00FFF7BAFF0546D0B994F950006664FDF7FB
:104B9C0017FB94F851000A4B04F15201012253F80F
:104BAC002000FFF7F3F894F950002A460121FDF795
:104BBC00C7FA94F95000BDE87040FDF7F3BA70BD28
:104BCC00CC08002010B50446E8B1816490F950007F
:104BDC00FDF7F6FAB4F86230A16D9BB294F851006F
:104BEC001944094B012253F82000FFF7B0F894F94F
:104BFC00500000220121FDF7A3FA94F95000BDE802
:104C0C001040FDF7CFBA10BDCC08002050B1B0F960
:104C1C004E30013306D190F85120034B53F822004B
:104C2C00FFF7BEB9704700BFCC08002050B1B0F9F7
:104C3C004E30013306D190F85120034B53F822002B
:104C4C00FFF7C6B9704700BFCC080020036C0438CE
:104C5C00184710B5436C04460438984701300AD005
:104C6C00B4F85E30616D9BB22046BDE81040012265
:104C7C001944FFF76CB810BD1FB5036804461868DB
:104C8C0010F0010013D0002200921A6800925B68A9
:104C9C000093009B201FFFF72FFF40BB01222046F3
:104CAC0004F14E0104B0BDE81040FFF76FB819686D
:104CBC0011F0020106D001901A6801925B68019311
:104CCC00019BE7E71A6812F0040206D002911A68F9
:104CDC0002925B680293029BDCE719680907D9D53D
:104CEC0003921A6803925B680393039BD2E704B0A8
:104CFC0010BD000008B52520FDF78CFA024B186892
:104D0C00BDE80840FFF7A4B8CC08002008B5262061
:104D1C00FDF780FA024B5868BDE80840FFF798B8D9
:104D2C00CC080020272008B5FDF774FA034B9868CF
:104D3C0018B1BDE80840FFF78BB808BDCC080020BF
:104D4C0003460A4910B508680344EFF308829342FE
:104D5C0005D90C224FF0FF30054B1A6010BD054AE7
:104D6C00054C121B9342F4D20B60F7E72000002095
:104D7C00080A00200050002000040000FEE700009C
:104D8C001622024B4FF0FF301A607047080A0020C1
:104D9C000120704710B54FF480330122022494B0E7
:104DAC000021CDE90A23CDE911434FF4E0130AA801
:104DBC000C910E921393FEF7CBFA00B1FEE70F2382
:104DCC00CDE905344FF480630790CDE908302146D6
:104DDC0005A8FEF793FC00B1FEE7122301934FF4F4
:104DEC000043CDE9033001A8FEF744FD00B1FEE716
:104DFC0014B010BDB0F86230013303F03F03A0F8DB
:104E0C006230B0F86230B0F85E009BB298424FF05E
:104E1C00FF3018BF00207047B0F8F430B0F8F00045
:104E2C00181A00F03F007047B0F8F430B0F8F020DA
:104E3C009BB293421ABFD0F8E830985C4FF0FF3029
:104E4C00704713B50DF107010446FFF779FE90B9D1
:104E5C00B4F86030B4F85C20013303F03F039342A4
:104E6C0009D0B4F860209DF80700616D92B29BB236
:104E7C008854A4F8603002B010BD0000012370B556
:104E8C000374B0F9E230044601330E4600F1940588
:104E9C0008D190F8F8302BB1002380F8F830284670
:104EAC00FFF7B4FEB4F8F2104B1C03F03F03B4F858
:104EBC00F62092B29342FAD0D4F8EC2028465654FD
:104ECC00A4F8F230FFF72AFE18B928460249FFF77A
:104EDC0079FE012070BD00BF014E0008037C33B188
:104EEC00B0F8F220B0F8F6309BB29A42FAD1704783
:104EFC0000F11103914208BF4FF0FF31C0F8E830C8
:104F0C000023A0F8E02000F15102A0F8F430C0E931
:104F1C003B23A0F8E210A0F8F63070474FF0000CDD
:104F2C0008B54FF47A73C0E901C3094B2229036019
:104F3C0096BF084B4FF0FF3133F91110222A96BF60
:104F4C00044B4FF0FF3233F91220FFF7D1FF08BDAD
:104F5C00C0630008FC62000870B54FF47A73164603
:104F6C000022C0E90123164B044603604FF6FF7381
:104F7C00A0F8E230134B0D46984214D1124B9A8A8A
:104F8C00A0F8E220DB8AA0F8E030012E04BF4FF637
:104F9C00FF73A4F8E2302046B4F9E020B4F9E21033
:104FAC00FFF7A6FF70BD09492846FFF7C9FB084962
:104FBC00A4F8E2002846FFF7C3FBA4F8E000E4E7FE
:104FCC00C0630008D8080020FC6200088462000856
:104FDC00C0620008B0F9E23010B5013304460ED1BE
:104FEC0003685B69984794F8F83043B9012304F1DE
:104FFC00940084F8F830BDE81040FFF717BE10BDE0
:10500C0002F00703023BDBB2042B2DE9F7430E46FB
:10501C00C0F8FC1096BF1E490024CC5C02F0300393
:10502C00302B054680F8F92026D14FF4C0670134A7
:10503C0012F0080F14BF4FF400594FF00009082C60
:10504C0021D0092C21D04FF4C1711248FFF79AFBE3
:10505C0005F1940831463B4622464046CDF8009077
:10506C00FFF746FD2846FFF7B5FF40460A4903B057
:10507C00BDE8F043FFF780BD12F020071CBF4FF4D2
:10508C0080670134D4E70024E2E74FF48054DFE773
:10509C00B2630008426300084F4E000810B5044686
:1050AC00FFF798FFB4F8F420B4F8F03092B29A42BB
:1050BC0017BFD4F8E8204FF0FF30D05C01331CBF91
:1050CC0003F03F03A4F8F03010BD000000220249A9
:1050DC000248FFF741BF00BF00380140D80800204C
:1050EC00836810B504462BB1032201469847002370
:1050FC00C4E90233204610BD0B4B98420ED0B0F1E0
:10510C00804F0DD0A3F5943398420BD04FF6FF731C
:10511C00064A904214BF184603207047002070477F
:10512C000120704702207047002C0140000800400D
:10513C00014670B5044651F8100FFFF7DDFF054628
:10514C000846FFF78DFB0023084A04F1580642F885
:10515C002530E36004F1A805B54204D0103D284683
:10516C00FBF7EEFAF8E7204670BD00BFD809002027
:10517C00F8B50023044603660367C0F88030C0F816
:10518C009030C0F8A03008460D46FFF7B5FF4FF63B
:10519C00FF739842064603D12F211E48FFF7F2FAFF
:1051AC001D4A04F10C0342F8263000230E2204F1B0
:1051BC00100625613046C4E90C33C4E90E33C4E94A
:1051CC001033C4E9142384F82C30A36484F84C30D5
:1051DC0084F84D30E460FFF7FFFA04F1580504F150
:1051EC00A80728461035FFF77BFFBD42F9D10023F5
:1051FC004FF6FF72C4E90033C4E90632C4E9083340
:10520C00A360636180233046A362FEF7DBFC20467B
:10521C00F8BD00BFE0630008D8090020034B1868F4
:10522C0010B10430FEF7F4BB704700BFD809002062
:10523C00FFF7F4BF034B586810B10430FEF7E8BB1E
:10524C00704700BFD8090020034B986810B1043098
:10525C00FEF7DEBB704700BFD8090020034BD868AF
:10526C0010B10430FEF7D4BB704700BFD809002042
:10527C0010B5044620B940F226410648FFF782FAE1
:10528C002046FFF7A7FA0068036E13B15830FCF7FD
:10529C00DDFB10BDE0630008FFF7EABF38B505463B
:1052AC0020B940F239411048FFF76CFA2B7F013BD3
:1052BC00072B11D8DFE803F0150410111010101390
:1052CC0002242846FFF786FA24010068583420444B
:1052DC0083680BB1FCF7BAFB38BD0324F1E7042457
:1052EC00EFE70124EDE700BFE0630008FFF7D6BF4E
:1052FC00FFF7D4BFF8B505460E4617460024BC424E
:10530C0007D02B6828461B68315D984708B10134DB
:10531C00F5E72046F8BD70B505460C46084649B180
:10532C00FAF7EEFE2B68024621462846BDE870408F
:10533C005B68184770BD03688A685B680968184722
:10534C0008B5FFF7E8FF08BD08B50249FFF7E3FF12
:10535C0008BD00BF185C000838B50546FFF7EBFF29
:10536C0004462846FFF7F0FF204438BD38B5054603
:10537C00FFF7D1FF04462846FFF7E6FF204438BD6F
:10538C0010B5044600F03EFAE06023682046DB6866
:10539C009847002808DA00F035FAE368C01AA368C9
:1053AC009842F2D34FF0FF3010BDF8B506460D46CB
:1053BC0017460024BC4207D03046FFF7E1FF031E1E
:1053CC0002DB2B550134F5E72046F8BD2DE9F04101
:1053DC000746884616461D4673B100243846FFF72B
:1053EC00CFFF031E05DB434503D033550134A542E3
:1053FC00F4D12046BDE8F0811C46FAE710B504460E
:10540C00006800F04FFA204610BD10B50446006845
:10541C0008B100F047FA0023C4E90133236010BD42
:10542C0038B504460D460068013100F0FFFA10B1A2
:10543C00C4E90005012038BD036810B5044623B14A
:10544C0043688B4201D3012010BD2046FFF7E8FFD3
:10545C000028F9D0A368002BF5D122681370F2E76D
:10546C0070B50E46114604461546FFF7E5FF20B908
:10547C002046FFF7CAFF204670BD31462068A56064
:10548C0000F0ECFAF7E738B5002304460D46C0E906
:10549C000033836039B10846FAF732FE29460246DA
:1054AC002046FFF7DDFF204638BD38B505460C46D3
:1054BC0049B10846FAF724FE214602462846FFF772
:1054CC00CFFF284638BDFFF7A0FFFAE71FB504460B
:1054DC0000230846C4E90033A36001A900F0BCF81E
:1054EC00204601A9FFF7E1FF204604B010BD10B51E
:1054FC00002304468AB0C4E90033A360084601A91E
:10550C0000F07AF8204601A9FFF7CFFF20460AB039
:10551C0010BD70B505460E4609B9002070BD6AB1C4
:10552C00846814442146FFF787FF0028F5D02868CB
:10553C00AB683146184400F091FAAC600120EDE7FD
:10554C0010B58A6809680446FFF7E3FF10B92046D6
:10555C00FFF75BFF204610BD38B504460D4621B958
:10556C002046FFF752FF204638BD0846FAF7C8FD23
:10557C00294602462046FFF7CCFF0028F0D0F2E780
:10558C00F0B503468BB0084669B3911E222931D879
:10559C000A2A06D1002B04DA01265B4201AD29460A
:1055AC000EE00026FAE7B3FBF2F402FB14372346B5
:1055BC00092FFCB294BF30345734E4B201F8014BDC
:1055CC00002BF0D1A942EED0034616B12D2203F8E0
:1055DC00012B0A465C1EAA4207D84A1B8D4288BF83
:1055EC000022002199540BB0F0BD12F8016D04F8A3
:1055FC00016FF0E70020F6E7FFF7C2BF70B5044675
:10560C008AB0084689B1931E222B23D801AD2946B6
:10561C006CB9A9420BD00B46421EAB4215D84B1BA2
:10562C008D4288BF00230022C2540AB070BDB4FB67
:10563C00F2F302FB13461C46092EF3B294BF30332F
:10564C005733DBB201F8013BE2E713F8014D02F8E6
:10565C00014FE2E70020E8E7FFF7D0BF08B50320D1
:10566C00FCF75CFDBDE8084000F0ECB808B5AFF302
:10567C000080FBF7C1FAFBF731FB00F0D5F8FAE735
:10568C0000F008B900F00EB9002103E00B4B5B5899
:10569C00435004310A480B4B42189A42F6D30A4A3B
:1056AC0002E0002342F8043B084B9A42F9D3FFF77F
:1056BC006BF800F0CBF8FFF7D9FF7047486500088E
:1056CC00000000208800002088000020180A00201C
:1056DC00FEE7000022282DE9F0410E463DD8204B74
:1056EC0033F91040621C38D01E4DC4F3031755F823
:1056FC00273004F00F0823FA08F3DB0710D52046F7
:10570C001949FEF70DFF10B12046FEF7D3FC01231B
:10571C0003FA08F255F8273023EA020345F827303C
:10572C00052E14D8DFE806F0030F090B0D1100212C
:10573C002046BDE8F041FEF703BF1021F8E7202119
:10574C00F6E70321F4E70121F2E70921F0E749210B
:10575C00BDE8F0410548FFF715B8BDE8F08100BF82
:10576C00FC620008E80900208C6000084F64000807
:10577C0022288EBF4FF0FF330C4B33F91030C3F39C
:10578C000312042A98BF0A4803F00F0398BF50F87D
:10579C002220084888BF002250F82330C3F30F237F
:1057AC0009B1136170475361704700BFFC62000878
:1057BC0008000020BC5F000822288EBF4FF0FF338A
:1057CC000D4B33F91030C3F30312042A10D80B49D4
:1057DC0003F00F0351F822209068094AC04352F895
:1057EC00233000EA132080B2B0FA80F040097047F1
:1057FC0000239B68FFDE00BFFC620008080000204D
:10580C00BC5F0008FEF7A2BCFEF782BC38B50446AC
:10581C0048B1FEF79BFC054600F016F8FEF796FC27
:10582C00431BA342F8D338BD08B5044B2BB1044835
:10583C00FFF7F2FA08B1AFF3008008BD00000000DA
:10584C00D8080020FEF7AABC7047000070B50026EF
:10585C000C4D0D4C641BA410A64209D100F090F91C
:10586C0000260A4D0A4C641BA410A64205D170BD3B
:10587C0055F8043B98470136EEE755F8043B98473A
:10588C000136F2E720650008206500082065000855
:10589C003C650008024B0146186800F06DB800BF6B
:1058AC0024000020024B0146186800F019B800BF14
:1058BC00240000200A44914200F1FF3300D17047CC
:1058CC0010B511F8014B914203F8014FF9D110BDFD
:1058DC0003460244934200D1704703F8011BF9E7D9
:1058EC0038B50546002943D051F8043C0C1F002B59
:1058FC00B8BFE41800F0BCF81E4A1368104633B960
:10590C00636014602846BDE8384000F0B7B8A34285
:10591C000AD921686218934201BF1A685B68521851
:10592C00226063600460EDE71A465B680BB1A3422A
:10593C00FAD911685018A0420BD1206801445018B4
:10594C0083421160DED118685B68014411605360BA
:10595C00D8E702D90C232B60D4E7206821188B429E
:10596C0001BF19685B680918216063605460C9E75E
:10597C0038BD00BFFC090020F8B5CD1C25F003058F
:10598C0008350C2D38BF0C25002D064601DBA9422D
:10599C0003D90C2333600020F8BD00F069F82149CD
:1059AC000A6814469CB9204F3B6823B921463046FF
:1059BC0000F044F838602946304600F03FF8431CAC
:1059CC0023D10C233046336000F058F8E3E723680A
:1059DC005B1B17D40B2B03D923601C44256004E0FC
:1059EC006368A2420CBF0B605360304600F046F86F
:1059FC0004F10B00231D20F00700C21ACCD01B1A97
:105A0C00A350C9E722466468CCE7C41C24F0030405
:105A1C00A042E3D0211A304600F010F80130DDD15D
:105A2C00CFE700BFFC090020000A0020024B0A4609
:105A3C000146186800F028B82400002038B500236F
:105A4C00054D044608462B60FFF77AF9431C02D13A
:105A5C002B6803B1236038BD080A0020034611F8F7
:105A6C00012B03F8012B002AF9D1704770477047BE
:105A7C000148FFF7FBBF00BF100A00200148FFF7E9
:105A8C00F6BF00BF100A0020F8B5074614460E46B4
:105A9C0021B91146BDE8F840FFF76EBF22B9FFF7F8
:105AAC001FFF25462846F8BD00F014F8A0420FD27F
:105ABC0021463846FFF760FF05460028F2D03146F4
:105ACC002246FFF7F7FE31463846FFF709FFE9E7B4
